{
  "contractName": "Bookings",
  "abi": [
    {
      "constant": true,
      "inputs": [
        {
          "name": "",
          "type": "bytes32"
        }
      ],
      "name": "freeCancellations",
      "outputs": [
        {
          "name": "customer",
          "type": "address"
        },
        {
          "name": "roomId",
          "type": "uint256"
        },
        {
          "name": "startDate",
          "type": "uint256"
        },
        {
          "name": "endDate",
          "type": "uint256"
        },
        {
          "name": "amountPaid",
          "type": "uint256"
        },
        {
          "name": "status",
          "type": "uint8"
        }
      ],
      "payable": false,
      "stateMutability": "view",
      "type": "function"
    },
    {
      "constant": true,
      "inputs": [],
      "name": "dateStart",
      "outputs": [
        {
          "name": "",
          "type": "uint256"
        }
      ],
      "payable": false,
      "stateMutability": "view",
      "type": "function"
    },
    {
      "constant": true,
      "inputs": [
        {
          "name": "",
          "type": "uint256"
        }
      ],
      "name": "roomList",
      "outputs": [
        {
          "name": "owner",
          "type": "address"
        },
        {
          "name": "roomId",
          "type": "uint256"
        },
        {
          "name": "priceCancellable",
          "type": "uint256"
        },
        {
          "name": "price",
          "type": "uint256"
        }
      ],
      "payable": false,
      "stateMutability": "view",
      "type": "function"
    },
    {
      "constant": true,
      "inputs": [],
      "name": "numBooking",
      "outputs": [
        {
          "name": "",
          "type": "uint96"
        }
      ],
      "payable": false,
      "stateMutability": "view",
      "type": "function"
    },
    {
      "constant": true,
      "inputs": [
        {
          "name": "",
          "type": "bytes32"
        }
      ],
      "name": "bookings",
      "outputs": [
        {
          "name": "customer",
          "type": "address"
        },
        {
          "name": "roomId",
          "type": "uint256"
        },
        {
          "name": "startDate",
          "type": "uint256"
        },
        {
          "name": "endDate",
          "type": "uint256"
        },
        {
          "name": "amountPaid",
          "type": "uint256"
        },
        {
          "name": "status",
          "type": "uint8"
        }
      ],
      "payable": false,
      "stateMutability": "view",
      "type": "function"
    },
    {
      "constant": true,
      "inputs": [],
      "name": "currentRoomId",
      "outputs": [
        {
          "name": "",
          "type": "uint256"
        }
      ],
      "payable": false,
      "stateMutability": "view",
      "type": "function"
    },
    {
      "anonymous": false,
      "inputs": [
        {
          "indexed": false,
          "name": "bookingId",
          "type": "bytes32"
        }
      ],
      "name": "FreeCancel",
      "type": "event"
    },
    {
      "anonymous": false,
      "inputs": [
        {
          "indexed": false,
          "name": "bookingId",
          "type": "bytes32"
        }
      ],
      "name": "Cancelled",
      "type": "event"
    },
    {
      "anonymous": false,
      "inputs": [
        {
          "indexed": false,
          "name": "bookingId",
          "type": "bytes32"
        }
      ],
      "name": "Booked",
      "type": "event"
    },
    {
      "constant": false,
      "inputs": [
        {
          "name": "roomId",
          "type": "uint256"
        },
        {
          "name": "start",
          "type": "uint256"
        },
        {
          "name": "end",
          "type": "uint256"
        }
      ],
      "name": "booking",
      "outputs": [
        {
          "name": "",
          "type": "bytes32"
        }
      ],
      "payable": true,
      "stateMutability": "payable",
      "type": "function"
    },
    {
      "constant": false,
      "inputs": [
        {
          "name": "roomId",
          "type": "uint256"
        },
        {
          "name": "start",
          "type": "uint256"
        },
        {
          "name": "end",
          "type": "uint256"
        }
      ],
      "name": "freeCancellation",
      "outputs": [
        {
          "name": "",
          "type": "bytes32"
        }
      ],
      "payable": true,
      "stateMutability": "payable",
      "type": "function"
    },
    {
      "constant": false,
      "inputs": [
        {
          "name": "bookingId",
          "type": "bytes32"
        }
      ],
      "name": "cancel",
      "outputs": [],
      "payable": false,
      "stateMutability": "nonpayable",
      "type": "function"
    },
    {
      "constant": false,
      "inputs": [
        {
          "name": "roomId",
          "type": "uint256"
        },
        {
          "name": "start",
          "type": "uint256"
        },
        {
          "name": "end",
          "type": "uint256"
        }
      ],
      "name": "isAvailableForDates",
      "outputs": [
        {
          "name": "",
          "type": "bool"
        }
      ],
      "payable": false,
      "stateMutability": "nonpayable",
      "type": "function"
    },
    {
      "constant": false,
      "inputs": [
        {
          "name": "price",
          "type": "uint256"
        },
        {
          "name": "priceCancellable",
          "type": "uint256"
        }
      ],
      "name": "addRoom",
      "outputs": [
        {
          "name": "",
          "type": "uint256"
        }
      ],
      "payable": false,
      "stateMutability": "nonpayable",
      "type": "function"
    },
    {
      "constant": false,
      "inputs": [
        {
          "name": "roomId",
          "type": "uint256"
        }
      ],
      "name": "getRoom",
      "outputs": [
        {
          "name": "priceCancellable",
          "type": "uint256"
        },
        {
          "name": "price",
          "type": "uint256"
        },
        {
          "name": "booked",
          "type": "bool[]"
        }
      ],
      "payable": false,
      "stateMutability": "nonpayable",
      "type": "function"
    }
  ],
  "bytecode": "0x6080604052600080556000600160006101000a8154816bffffffffffffffffffffffff02191690836bffffffffffffffffffffffff1602179055504260375534801561004a57600080fd5b506114688061005a6000396000f3006080604052600436106100ba576000357c0100000000000000000000000000000000000000000000000000000000900463ffffffff1680631ed2ab3d146100bf57806336e1d3a91461016157806364c655ed146101ac5780636d8a74cb1461020557806381453a7014610295578063a3b6120c146102e5578063a63a9aab14610310578063a96372f514610392578063aa3cde48146103e2578063bbacc18714610429578063c4d252f5146104cb578063e4568463146104fc575b600080fd5b3480156100cb57600080fd5b506100ee6004803603810190808035600019169060200190929190505050610527565b604051808773ffffffffffffffffffffffffffffffffffffffff1673ffffffffffffffffffffffffffffffffffffffff16815260200186815260200185815260200184815260200183815260200182600281111561014857fe5b60ff168152602001965050505050505060405180910390f35b34801561016d57600080fd5b506101966004803603810190808035906020019092919080359060200190929190505050610590565b6040518082815260200191505060405180910390f35b3480156101b857600080fd5b506101eb6004803603810190808035906020019092919080359060200190929190803590602001909291905050506106d3565b604051808215151515815260200191505060405180910390f35b34801561021157600080fd5b5061023060048036038101908080359060200190929190505050610704565b6040518084815260200183815260200180602001828103825283818151815260200191508051906020019060200280838360005b8381101561027f578082015181840152602081019050610264565b5050505090500194505050505060405180910390f35b6102c76004803603810190808035906020019092919080359060200190929190803590602001909291905050506107d1565b60405180826000191660001916815260200191505060405180910390f35b3480156102f157600080fd5b506102fa610a79565b6040518082815260200191505060405180910390f35b34801561031c57600080fd5b5061033b60048036038101908080359060200190929190505050610a7f565b604051808573ffffffffffffffffffffffffffffffffffffffff1673ffffffffffffffffffffffffffffffffffffffff16815260200184815260200183815260200182815260200194505050505060405180910390f35b6103c4600480360381019080803590602001909291908035906020019092919080359060200190929190505050610ad4565b60405180826000191660001916815260200191505060405180910390f35b3480156103ee57600080fd5b506103f7610d9d565b60405180826bffffffffffffffffffffffff166bffffffffffffffffffffffff16815260200191505060405180910390f35b34801561043557600080fd5b506104586004803603810190808035600019169060200190929190505050610dbb565b604051808773ffffffffffffffffffffffffffffffffffffffff1673ffffffffffffffffffffffffffffffffffffffff1681526020018681526020018581526020018481526020018381526020018260028111156104b257fe5b60ff168152602001965050505050505060405180910390f35b3480156104d757600080fd5b506104fa6004803603810190808035600019169060200190929190505050610e24565b005b34801561050857600080fd5b5061051161108d565b6040518082815260200191505060405180910390f35b60346020528060005260406000206000915090508060000160009054906101000a900473ffffffffffffffffffffffffffffffffffffffff16908060010154908060020154908060030154908060040154908060050160009054906101000a900460ff16905086565b6000806000670de0b6b3a764000084029150670de0b6b3a76400008502905060a0604051908101604052803373ffffffffffffffffffffffffffffffffffffffff168152602001600054815260200183815260200182815260200161016d60405190808252806020026020018201604052801561061c5781602001602082028038833980820191505090505b508152506002600054600a8110151561063157fe5b6005020160008201518160000160006101000a81548173ffffffffffffffffffffffffffffffffffffffff021916908373ffffffffffffffffffffffffffffffffffffffff16021790555060208201518160010155604082015181600201556060820151816003015560808201518160040190805190602001906106b6929190611366565b509050506001600054016000819055506000549250505092915050565b60008060006106e185611093565b91506106ec84611093565b90506106f98683836110c4565b925050509392505050565b6000806060600284600a8110151561071857fe5b6005020160020154600285600a8110151561072f57fe5b6005020160030154600286600a8110151561074657fe5b60050201600401808054806020026020016040519081016040528092919081815260200182805480156107bd57602002820191906000526020600020906000905b82829054906101000a900460ff161515815260200190600101906020826000010492830192600103820291508084116107875790505b505050505090509250925092509193909250565b600080600080600087101580156107ea57506000548711155b80156107f557508486105b801561080357508560375411155b151561080e57600080fd5b600287600a8110151561081d57fe5b60050201600201543414151561089b576040517f08c379a00000000000000000000000000000000000000000000000000000000081526004018080602001828103825260138152602001807f57726f6e6720626f6f6b696e672070726963650000000000000000000000000081525060200191505060405180910390fd5b6108a687878761113f565b80935081945050506108b733611255565b905060c0604051908101604052803373ffffffffffffffffffffffffffffffffffffffff16815260200188815260200184815260200183815260200134815260200160028081111561090557fe5b81525060346000836000191660001916815260200190815260200160002060008201518160000160006101000a81548173ffffffffffffffffffffffffffffffffffffffff021916908373ffffffffffffffffffffffffffffffffffffffff1602179055506020820151816001015560408201518160020155606082015181600301556080820151816004015560a08201518160050160006101000a81548160ff021916908360028111156109b657fe5b0217905550905050603860003373ffffffffffffffffffffffffffffffffffffffff1673ffffffffffffffffffffffffffffffffffffffff1681526020019081526020016000208190806001815401808255809150509060018203906000526020600020016000909192909190915090600019169055507fa8fa168e209f8c22d0614c9f44f8f3ea557364f2759757af4be2cd0c0cd4f4478160405180826000191660001916815260200191505060405180910390a18093505050509392505050565b60375481565b600281600a81101515610a8e57fe5b600502016000915090508060000160009054906101000a900473ffffffffffffffffffffffffffffffffffffffff16908060010154908060020154908060030154905084565b60008060008060008054118015610aec575060008710155b8015610af9575060005487105b8015610b0457508486105b8015610b1257508560375411155b1515610b1d57600080fd5b600287600a81101515610b2c57fe5b600502016003015434141515610b4157600080fd5b610b4c87878761113f565b8093508194505050610b5d33611255565b905060c0604051908101604052803373ffffffffffffffffffffffffffffffffffffffff16815260200188815260200184815260200183815260200134815260200160016002811115610bac57fe5b81525060356000836000191660001916815260200190815260200160002060008201518160000160006101000a81548173ffffffffffffffffffffffffffffffffffffffff021916908373ffffffffffffffffffffffffffffffffffffffff1602179055506020820151816001015560408201518160020155606082015181600301556080820151816004015560a08201518160050160006101000a81548160ff02191690836002811115610c5d57fe5b0217905550905050600287600a81101515610c7457fe5b6005020160000160009054906101000a900473ffffffffffffffffffffffffffffffffffffffff1673ffffffffffffffffffffffffffffffffffffffff166108fc349081150290604051600060405180830381858888f19350505050158015610ce1573d6000803e3d6000fd5b50603860003373ffffffffffffffffffffffffffffffffffffffff1673ffffffffffffffffffffffffffffffffffffffff1681526020019081526020016000208190806001815401808255809150509060018203906000526020600020016000909192909190915090600019169055507fafb79fd5d2b9d7dc787267fc166aad92594a25b6a62b744a17bb022179e58aaa8160405180826000191660001916815260200191505060405180910390a18093505050509392505050565b600160009054906101000a90046bffffffffffffffffffffffff1681565b60356020528060005260406000206000915090508060000160009054906101000a900473ffffffffffffffffffffffffffffffffffffffff16908060010154908060020154908060030154908060040154908060050160009054906101000a900460ff16905086565b600060346000836000191660001916815260200190815260200160002090503373ffffffffffffffffffffffffffffffffffffffff168160000160009054906101000a900473ffffffffffffffffffffffffffffffffffffffff1673ffffffffffffffffffffffffffffffffffffffff16141515610f0a576040517f08c379a000000000000000000000000000000000000000000000000000000000815260040180806020018281038252601c8152602001807f4e6f7420746865206f776e6572206f662074686520626f6f6b696e670000000081525060200191505060405180910390fd5b600280811115610f1657fe5b8160050160009054906101000a900460ff166002811115610f3357fe5b141515610fa8576040517f08c379a00000000000000000000000000000000000000000000000000000000081526004018080602001828103825260188152602001807f426f6f6b696e6720616c72656164792063616e63656c6564000000000000000081525060200191505060405180910390fd5b610fbf8160010154826002015483600301546112f6565b3373ffffffffffffffffffffffffffffffffffffffff166108fc82600401549081150290604051600060405180830381858888f19350505050158015611009573d6000803e3d6000fd5b507fbaa1eb22f2a492ba1a5fea61b8df4d27c6c8b5f3971e63bb58fa14ff72eedb708260405180826000191660001916815260200191505060405180910390a1600060346000846000191660001916815260200190815260200160002060050160006101000a81548160ff0219169083600281111561108457fe5b02179055505050565b60005481565b60006018603c8060375485038115156110a857fe5b048115156110b257fe5b048115156110bc57fe5b049050919050565b6000808390505b828111151561113257600285600a811015156110e357fe5b60050201600401818154811015156110f757fe5b90600052602060002090602091828204019190069054906101000a900460ff16156111255760009150611137565b80806001019150506110cb565b600191505b509392505050565b600080600080600061115087611093565b925061115b86611093565b91506111688884846110c4565b15156111dc576040517f08c379a00000000000000000000000000000000000000000000000000000000081526004018080602001828103825260128152602001807f526f6f6d206e6f7420617661696c61626c65000000000000000000000000000081525060200191505060405180910390fd5b8290505b8181111515611244576001600289600a811015156111fa57fe5b600502016004018281548110151561120e57fe5b90600052602060002090602091828204019190066101000a81548160ff02191690831515021790555080806001019150506111e0565b828294509450505050935093915050565b600060018060009054906101000a90046bffffffffffffffffffffffff1601600160006101000a8154816bffffffffffffffffffffffff02191690836bffffffffffffffffffffffff160217905550600160009054906101000a90046bffffffffffffffffffffffff166bffffffffffffffffffffffff1660608373ffffffffffffffffffffffffffffffffffffffff169060020a02016001029050919050565b60008290505b8181111515611360576000600285600a8110151561131657fe5b600502016004018281548110151561132a57fe5b90600052602060002090602091828204019190066101000a81548160ff02191690831515021790555080806001019150506112fc565b50505050565b82805482825590600052602060002090601f016020900481019282156113fb5791602002820160005b838211156113cc57835183826101000a81548160ff021916908315150217905550926020019260010160208160000104928301926001030261138f565b80156113f95782816101000a81549060ff02191690556001016020816000010492830192600103026113cc565b505b509050611408919061140c565b5090565b61143991905b8082111561143557600081816101000a81549060ff021916905550600101611412565b5090565b905600a165627a7a7230582055ea1683141a120f0714b5b76f0de655004cb8af868b0f80ce30761e2e162be80029",
  "source": "pragma solidity ^0.4.18;\n\ncontract Bookings {\n    \n    enum BookingStatus {\n        CANCELED,\n        CONFIRMED,    \n        PENDING\n    }\n\tstruct BookingData {\n\t    address customer;\n\t    uint roomId;\n\t    uint startDate;\n\t    uint endDate;\n\t    uint amountPaid;\n\t    BookingStatus status;\n\t}\n\t\n\tstruct Room {\n\t    address owner;\n\t    uint roomId;\n\t    uint priceCancellable;\n\t    uint price;\n\t    bool[] booked;\n\t}\n\tuint public currentRoomId = 0;\n\tuint96 public numBooking = 0;\n    Room[10] public roomList;\n\tmapping(bytes32 => BookingData) public freeCancellations;\n\tmapping(bytes32 => BookingData) public bookings;\n\tmapping (uint => uint[]) dateRoom;\n\t\n\tuint public dateStart = now;\n\tmapping(address => bytes32[]) userBookings;\n\n\tevent FreeCancel(bytes32 bookingId);\n\tevent Cancelled(bytes32 bookingId);\n\tevent Booked(bytes32 bookingId);\n\n    // **************\n    // PUBLIC METHODS\n    // **************\n    \n    // No cancellation\n\tfunction booking(uint roomId, uint start, uint end) payable public returns (bytes32)\n\t{\n\t    // Make sure the roomId exist and the date are usable\n        require(currentRoomId > 0 && roomId >= 0 && roomId < currentRoomId && start < end && dateStart <= start);\n        \n        // Do not proceed if the price of the booking is wrong\n        if (msg.value != roomList[roomId].price)\n        {\n            revert();\n        }\n        \n        // Mark the room as booked for the days of the booking\n        uint dayStart;\n        uint dayEnd;\n        (dayStart, dayEnd) =  markAsBooked(roomId, start, end);\n        \n        // Save the booking data\n        bytes32 bookingId = generateBookingId(msg.sender);\n        bookings[bookingId] = BookingData(msg.sender, roomId, dayStart, dayEnd, msg.value, BookingStatus.CONFIRMED);\n        \n        // Transfer the money to the hotel owner\n        roomList[roomId].owner.transfer(msg.value);\n        \n        // Push the booking ID for the user\n        userBookings[msg.sender].push(bookingId);\n\n        Booked(bookingId);\n\n        return bookingId;\n\t}\n\t\n\t// Free cancellation\n\tfunction freeCancellation(uint roomId, uint start, uint end) payable public returns (bytes32)\n\t{\n\t    // Make sure the roomId exist and the date are usable\n        require(roomId >= 0 && roomId <= currentRoomId && start < end && dateStart <= start);\n        \n        // Do not proceed if the price of the booking is wrong\n        if (msg.value != roomList[roomId].priceCancellable)\n        {\n            revert('Wrong booking price');\n        }\n        \n        // Mark the room as booked for the days of the booking\n        uint dayStart;\n        uint dayEnd;\n        (dayStart, dayEnd) =  markAsBooked(roomId, start, end);\n        \n        // Save the booking data\n        bytes32 bookingId = generateBookingId(msg.sender);\n        freeCancellations[bookingId] = BookingData(msg.sender, roomId, dayStart, dayEnd, msg.value, BookingStatus.PENDING);\n\t\n\t    // Push the booking ID for the user\n        userBookings[msg.sender].push(bookingId);\n\n        FreeCancel(bookingId);\n\n        return bookingId;\n\t}\n\t\n\tfunction cancel(bytes32 bookingId) public\n\t{\n\t    // Get the booking\n        BookingData bookingData = freeCancellations[bookingId];\n        if (bookingData.customer != msg.sender)\n            revert('Not the owner of the booking');\n        else if (bookingData.status != BookingStatus.PENDING)\n            revert('Booking already canceled');\n            \n        // Mark the room as available\n\t    markAsAvailable(bookingData.roomId, bookingData.startDate, bookingData.endDate);\n\t    \n\t    // Transfer the money back to the customer\n        msg.sender.transfer(bookingData.amountPaid);\n        \n        Cancelled(bookingId);\n\n        // Mark the booking as canceled\n        freeCancellations[bookingId].status = BookingStatus.CANCELED;\n\t}\n\t\n\t// Check if a room is available for the given dates\n\tfunction isAvailableForDates(uint roomId, uint start, uint end) public returns (bool)\n\t{\n\t    // Convert the date to day number (0 being the date the contract was deployed)\n        uint dayStart = convertToDayNumber(start);\t\n        uint dayEnd = convertToDayNumber(end);\n        \n        // Delegate the call \n        return isAvailableForDayNumbers(roomId, dayStart, dayEnd);\n\t}\n\t\n\tfunction addRoom(uint price, uint priceCancellable) public returns (uint) {\n\t    uint weiPriceCancellable = priceCancellable * 1000000000000000000;\n\t    uint weiPrice = price * 1000000000000000000;\n\t    roomList[currentRoomId] = Room(msg.sender, currentRoomId, weiPriceCancellable, weiPrice, new bool[](365));\n\t    currentRoomId = currentRoomId + 1;\n\t    return currentRoomId;\n\t}\n\t\n\t// **************\n    // PRIVATE METHODS\n    // **************\n    \n    // Generate unique booking ID \n\tfunction generateBookingId(address senderAddress)\n        internal\n        returns (bytes32)\n    {\n        // Update numBooking\n        numBooking = numBooking + 1;\n        // requestId = ADDRESS_SENDER+ numRequests (0xADRRESSSENDER00000NUMREQUEST)\n        return bytes32((uint256(senderAddress) << 96) + numBooking);\n    }\n    \n    // Convert dae to day number (0 being the contract creation day)\n    function convertToDayNumber(uint date) internal returns (uint)\n\t{\n\t    return (date - dateStart) / 60 / 60 / 24;\n\t}\n    \n    // Check whether the room is available for the given day numbers\n    function isAvailableForDayNumbers(uint roomId, uint dayStart, uint dayEnd) internal returns (bool)\n\t{\n        for (uint i = dayStart; i <= dayEnd ; i++)\n        {\n            if (roomList[roomId].booked[i])\n                return false;\n        }\n        return true;\n\t}\n\t\n\t// Marks the room as booked\n\tfunction markAsBooked(uint roomId, uint start, uint end) internal returns (uint, uint) \n\t{\n\t    // Convert the date to day number (0 being the date the contract was deployed)\n        uint dayStart = convertToDayNumber(start);\t\n        uint dayEnd = convertToDayNumber(end);\n        \n        // Check if the room is available\n        if (!isAvailableForDayNumbers(roomId, dayStart, dayEnd))\n            revert('Room not available');\n            \n        // Mark as booked\n        for (uint i = dayStart; i <= dayEnd ; i++)\n        {\n            roomList[roomId].booked[i] = true;\n        }\n        \n        // Return the day numbers\n        return (dayStart, dayEnd);\n\t}\n\t\n\t// Marks the room as available\n\tfunction markAsAvailable(uint roomId, uint dayStart, uint dayEnd) internal\n\t{\n        // Mark as available\n        for (uint i = dayStart; i <= dayEnd ; i++)\n        {\n            roomList[roomId].booked[i] = false;\n        }\n\t}\n\t\n\tfunction getRoom(uint roomId) public returns (uint priceCancellable, uint price, bool[] booked) {\n\t    return (roomList[roomId].priceCancellable, roomList[roomId].price, roomList[roomId].booked);\n\t}\n}",
  "sourcePath": "/Users/Sonia/Projets/BlockChain/Wes'hotel/contracts/Bookings.sol",
  "compiler": {
    "name": "solc",
    "version": "0.4.24+commit.e67f0147.Emscripten.clang"
  },
  "schemaVersion": "2.0.1",
  "updatedAt": "2018-08-06T10:02:47.058Z"
}