{
  "contractName": "HotelFactory",
  "abi": [
    {
      "constant": true,
      "inputs": [
        {
          "name": "",
          "type": "address"
        },
        {
          "name": "",
          "type": "uint256"
        }
      ],
      "name": "hotelOwnerships",
      "outputs": [
        {
          "name": "",
          "type": "address"
        }
      ],
      "payable": false,
      "stateMutability": "view",
      "type": "function",
      "signature": "0x0a392cb2"
    },
    {
      "anonymous": false,
      "inputs": [
        {
          "indexed": false,
          "name": "contractAddress",
          "type": "address"
        }
      ],
      "name": "newHotelEvent",
      "type": "event",
      "signature": "0xf683b4f502e3c13d91ca2e4d91e692e866ba50254669abd3fbf3a6c6ffc82595"
    },
    {
      "constant": false,
      "inputs": [
        {
          "name": "name",
          "type": "bytes32"
        },
        {
          "name": "stars",
          "type": "uint8"
        },
        {
          "name": "description",
          "type": "string"
        }
      ],
      "name": "createContract",
      "outputs": [],
      "payable": false,
      "stateMutability": "nonpayable",
      "type": "function",
      "signature": "0x1787e7fc"
    },
    {
      "constant": true,
      "inputs": [],
      "name": "listMyHotels",
      "outputs": [
        {
          "name": "",
          "type": "address[]"
        }
      ],
      "payable": false,
      "stateMutability": "view",
      "type": "function",
      "signature": "0x97d8dd4a"
    },
    {
      "constant": true,
      "inputs": [],
      "name": "listAllHotels",
      "outputs": [
        {
          "name": "",
          "type": "address[]"
        }
      ],
      "payable": false,
      "stateMutability": "view",
      "type": "function",
      "signature": "0xc210c532"
    }
  ],
  "bytecode": "0x608060405234801561001057600080fd5b50612ade806100206000396000f3fe608060405260043610610062576000357c0100000000000000000000000000000000000000000000000000000000900463ffffffff1680630a392cb2146100675780631787e7fc1461010257806397d8dd4a146101e1578063c210c5321461024d575b600080fd5b34801561007357600080fd5b506100c06004803603604081101561008a57600080fd5b81019080803573ffffffffffffffffffffffffffffffffffffffff169060200190929190803590602001909291905050506102b9565b604051808273ffffffffffffffffffffffffffffffffffffffff1673ffffffffffffffffffffffffffffffffffffffff16815260200191505060405180910390f35b34801561010e57600080fd5b506101df6004803603606081101561012557600080fd5b8101908080359060200190929190803560ff1690602001909291908035906020019064010000000081111561015957600080fd5b82018360208201111561016b57600080fd5b8035906020019184600183028401116401000000008311171561018d57600080fd5b91908080601f016020809104026020016040519081016040528093929190818152602001838380828437600081840152601f19601f820116905080830192505050505050509192919290505050610306565b005b3480156101ed57600080fd5b506101f6610561565b6040518080602001828103825283818151815260200191508051906020019060200280838360005b8381101561023957808201518184015260208101905061021e565b505050509050019250505060405180910390f35b34801561025957600080fd5b5061026261062c565b6040518080602001828103825283818151815260200191508051906020019060200280838360005b838110156102a557808201518184015260208101905061028a565b505050509050019250505060405180910390f35b6001602052816000526040600020818154811015156102d457fe5b906000526020600020016000915091509054906101000a900473ffffffffffffffffffffffffffffffffffffffff1681565b6000338484846103146106ba565b808573ffffffffffffffffffffffffffffffffffffffff1673ffffffffffffffffffffffffffffffffffffffff1681526020018481526020018360ff1660ff16815260200180602001828103825283818151815260200191508051906020019080838360005b8381101561039557808201518184015260208101905061037a565b50505050905090810190601f1680156103c25780820380516001836020036101000a031916815260200191505b5095505050505050604051809103906000f0801580156103e6573d6000803e3d6000fd5b509050600081905060008190806001815401808255809150509060018203906000526020600020016000909192909190916101000a81548173ffffffffffffffffffffffffffffffffffffffff021916908373ffffffffffffffffffffffffffffffffffffffff16021790555050600160003373ffffffffffffffffffffffffffffffffffffffff1673ffffffffffffffffffffffffffffffffffffffff1681526020019081526020016000208190806001815401808255809150509060018203906000526020600020016000909192909190916101000a81548173ffffffffffffffffffffffffffffffffffffffff021916908373ffffffffffffffffffffffffffffffffffffffff160217905550507ff683b4f502e3c13d91ca2e4d91e692e866ba50254669abd3fbf3a6c6ffc8259581604051808273ffffffffffffffffffffffffffffffffffffffff1673ffffffffffffffffffffffffffffffffffffffff16815260200191505060405180910390a15050505050565b6060600160003373ffffffffffffffffffffffffffffffffffffffff1673ffffffffffffffffffffffffffffffffffffffff16815260200190815260200160002080548060200260200160405190810160405280929190818152602001828054801561062257602002820191906000526020600020905b8160009054906101000a900473ffffffffffffffffffffffffffffffffffffffff1673ffffffffffffffffffffffffffffffffffffffff16815260200190600101908083116105d8575b5050505050905090565b606060008054806020026020016040519081016040528092919081815260200182805480156106b057602002820191906000526020600020905b8160009054906101000a900473ffffffffffffffffffffffffffffffffffffffff1673ffffffffffffffffffffffffffffffffffffffff1681526020019060010190808311610666575b5050505050905090565b6040516123e8806106cb8339019056fe608060405260006005556000600660006101000a8154816bffffffffffffffffffffffff02191690836bffffffffffffffffffffffff1602179055506000600b553480156200004d57600080fd5b50604051620023e8380380620023e8833981018060405260808110156200007357600080fd5b810190808051906020019092919080519060200190929190805190602001909291908051640100000000811115620000aa57600080fd5b82810190506020810184811115620000c157600080fd5b8151856001820283011164010000000082111715620000df57600080fd5b50509291905050508260028190555081600360006101000a81548160ff021916908360ff160217905550806004908051906020019062000121929190620002c0565b5083600160006101000a81548173ffffffffffffffffffffffffffffffffffffffff021916908373ffffffffffffffffffffffffffffffffffffffff1602179055506201518080428115156200017357fe5b04026000819055507fb99667a7498d61cd5e3dc5fbbe8c0ae9f84efc73593062781f6a38b24ecfeb3d600160009054906101000a900473ffffffffffffffffffffffffffffffffffffffff16600254600360009054906101000a900460ff166004604051808573ffffffffffffffffffffffffffffffffffffffff1673ffffffffffffffffffffffffffffffffffffffff1681526020018481526020018360ff1660ff16815260200180602001828103825283818154600181600116156101000203166002900481526020019150805460018160011615610100020316600290048015620002a55780601f106200027957610100808354040283529160200191620002a5565b820191906000526020600020905b8154815290600101906020018083116200028757829003601f168201915b50509550505050505060405180910390a1505050506200036f565b828054600181600116156101000203166002900490600052602060002090601f016020900481019282601f106200030357805160ff191683800117855562000334565b8280016001018555821562000334579182015b828111156200033357825182559160200191906001019062000316565b5b50905062000343919062000347565b5090565b6200036c91905b80821115620003685760008160009055506001016200034e565b5090565b90565b612069806200037f6000396000f3fe6080604052600436106100db576000357c0100000000000000000000000000000000000000000000000000000000900463ffffffff16806305b34410146100e05780631920d1be1461010b57806336e1d3a91461015a5780633ccfd60b146101b357806352cfe5fd146101de57806364c655ed146103b25780636d8a74cb1461041957806382ae92aa1461046f578063911b6f4414610509578063922c5eb31461056b578063a63a9aab1461060f578063aa3cde481461066c578063c4d252f5146106b3578063d2b96449146106ee578063e45684631461079a575b600080fd5b3480156100ec57600080fd5b506100f56107c5565b6040518082815260200191505060405180910390f35b34801561011757600080fd5b506101446004803603602081101561012e57600080fd5b81019080803590602001909291905050506107cb565b6040518082815260200191505060405180910390f35b34801561016657600080fd5b5061019d6004803603604081101561017d57600080fd5b8101908080359060200190929190803590602001909291905050506107ee565b6040518082815260200191505060405180910390f35b3480156101bf57600080fd5b506101c86109e0565b6040518082815260200191505060405180910390f35b3480156101ea57600080fd5b506101f3610de3565b6040518080602001806020018060200180602001806020018060200187810387528d818151815260200191508051906020019060200280838360005b8381101561024a57808201518184015260208101905061022f565b5050505090500187810386528c818151815260200191508051906020019060200280838360005b8381101561028c578082015181840152602081019050610271565b5050505090500187810385528b818151815260200191508051906020019060200280838360005b838110156102ce5780820151818401526020810190506102b3565b5050505090500187810384528a818151815260200191508051906020019060200280838360005b838110156103105780820151818401526020810190506102f5565b50505050905001878103835289818151815260200191508051906020019060200280838360005b83811015610352578082015181840152602081019050610337565b50505050905001878103825288818151815260200191508051906020019060200280838360005b83811015610394578082015181840152602081019050610379565b505050509050019c5050505050505050505050505060405180910390f35b3480156103be57600080fd5b506103ff600480360360608110156103d557600080fd5b8101908080359060200190929190803590602001909291908035906020019092919050505061121b565b604051808215151515815260200191505060405180910390f35b34801561042557600080fd5b506104526004803603602081101561043c57600080fd5b8101908080359060200190929190505050611288565b604051808381526020018281526020019250505060405180910390f35b34801561047b57600080fd5b506104b26004803603604081101561049257600080fd5b8101908080359060200190929190803590602001909291905050506112c2565b6040518080602001828103825283818151815260200191508051906020019060200280838360005b838110156104f55780820151818401526020810190506104da565b505050509050019250505060405180910390f35b6105556004803603608081101561051f57600080fd5b8101908080359060200190929190803590602001909291908035906020019092919080351515906020019092919050505061140b565b6040518082815260200191505060405180910390f35b34801561057757600080fd5b506105806118c2565b604051808481526020018360ff1660ff16815260200180602001828103825283818151815260200191508051906020019080838360005b838110156105d25780820151818401526020810190506105b7565b50505050905090810190601f1680156105ff5780820380516001836020036101000a031916815260200191505b5094505050505060405180910390f35b34801561061b57600080fd5b506106486004803603602081101561063257600080fd5b8101908080359060200190929190505050611983565b60405180848152602001838152602001828152602001935050505060405180910390f35b34801561067857600080fd5b506106816119ad565b60405180826bffffffffffffffffffffffff166bffffffffffffffffffffffff16815260200191505060405180910390f35b3480156106bf57600080fd5b506106ec600480360360208110156106d657600080fd5b81019080803590602001909291905050506119cb565b005b3480156106fa57600080fd5b506107276004803603602081101561071157600080fd5b8101908080359060200190929190505050611d4d565b604051808773ffffffffffffffffffffffffffffffffffffffff1673ffffffffffffffffffffffffffffffffffffffff16815260200186815260200185815260200184815260200183815260200182600381111561078157fe5b60ff168152602001965050505050505060405180910390f35b3480156107a657600080fd5b506107af611db6565b6040518082815260200191505060405180910390f35b60005481565b600a818154811015156107da57fe5b906000526020600020016000915090505481565b600080831180156107ff5750600082115b1515610873576040517f08c379a00000000000000000000000000000000000000000000000000000000081526004018080602001828103825260128152602001807f507269636573206d757374206265203e2030000000000000000000000000000081525060200191505060405180910390fd5b600160009054906101000a900473ffffffffffffffffffffffffffffffffffffffff1673ffffffffffffffffffffffffffffffffffffffff163373ffffffffffffffffffffffffffffffffffffffff16141515610938576040517f08c379a000000000000000000000000000000000000000000000000000000000815260040180806020018281038252601c8152602001807f4f6e6c79206f776e65722063616e2075706461746520686f74656c2e0000000081525060200191505060405180910390fd5b600560008154600101919050819055506060604051908101604052806005548152602001838152602001848152506007600060055481526020019081526020016000206000820151816000015560208201518160010155604082015181600201559050507f5eb8fe5053bc12363ace2cf19996fbd78394df83dc158ea65c1368c9226f75ed6005546040518082815260200191505060405180910390a1600554905092915050565b6000600160009054906101000a900473ffffffffffffffffffffffffffffffffffffffff1673ffffffffffffffffffffffffffffffffffffffff163373ffffffffffffffffffffffffffffffffffffffff16141515610acd576040517f08c379a000000000000000000000000000000000000000000000000000000000815260040180806020018281038252602d8152602001807f4f6e6c79206f776e65722063616e207769746864726177206d6f6e657920667281526020017f6f6d2068697320686f74656c2e0000000000000000000000000000000000000081525060400191505060405180910390fd5b60008090506060600a805480602002602001604051908101604052809291908181526020018280548015610b2057602002820191906000526020600020905b815481526020019060010190808311610b0c575b50505050509050600a6000610b359190611f9f565b600080905060008090505b600b54811015610d035760008382815181101515610b5a57fe5b906020019060200201519050610b6e611fc0565b6008600083815260200190815260200160002060c060405190810160405290816000820160009054906101000a900473ffffffffffffffffffffffffffffffffffffffff1673ffffffffffffffffffffffffffffffffffffffff1673ffffffffffffffffffffffffffffffffffffffff168152602001600182015481526020016002820154815260200160038201548152602001600482015481526020016005820160009054906101000a900460ff166003811115610c2957fe5b6003811115610c3457fe5b815250509050428160600151108015610c67575060026003811115610c5557fe5b8160a001516003811115610c6557fe5b145b15610cb25780604001518601955060036008600084815260200190815260200160002060050160006101000a81548160ff02191690836003811115610ca857fe5b0217905550610cf4565b4281606001511115610cf357600a82908060018154018082558091505090600182039060005260206000200160009091929091909150555083806001019450505b5b50508080600101915050610b40565b5080600b819055507fd31fad3492ac9b601d2a28d0eba63ddb38203adba8afd5093215d69d55de259f83600b54600a60405180848152602001838152602001806020018281038252838181548152602001915080548015610d8357602002820191906000526020600020905b815481526020019060010190808311610d6f575b505094505050505060405180910390a13373ffffffffffffffffffffffffffffffffffffffff166108fc849081150290604051600060405180830381858888f19350505050158015610dd9573d6000803e3d6000fd5b5082935050505090565b6060806060806060806060600960003373ffffffffffffffffffffffffffffffffffffffff1673ffffffffffffffffffffffffffffffffffffffff168152602001908152602001600020600101805480602002602001604051908101604052809291908181526020018280548015610e7a57602002820191906000526020600020905b815481526020019060010190808311610e66575b505050505090506000600960003373ffffffffffffffffffffffffffffffffffffffff1673ffffffffffffffffffffffffffffffffffffffff168152602001908152602001600020600001549050606081604051908082528060200260200182016040528015610ef95781602001602082028038833980820191505090505b509050606082604051908082528060200260200182016040528015610f2d5781602001602082028038833980820191505090505b509050606083604051908082528060200260200182016040528015610f615781602001602082028038833980820191505090505b509050606084604051908082528060200260200182016040528015610f955781602001602082028038833980820191505090505b509050606085604051908082528060200260200182016040528015610fc95781602001602082028038833980820191505090505b509050606086604051908082528060200260200182016040528015610ffd5781602001602082028038833980820191505090505b50905060008090505b878110156111f857611016611fc0565b600860008b8481518110151561102857fe5b90602001906020020151815260200190815260200160002060c060405190810160405290816000820160009054906101000a900473ffffffffffffffffffffffffffffffffffffffff1673ffffffffffffffffffffffffffffffffffffffff1673ffffffffffffffffffffffffffffffffffffffff168152602001600182015481526020016002820154815260200160038201548152602001600482015481526020016005820160009054906101000a900460ff1660038111156110e857fe5b60038111156110f357fe5b815250509050898281518110151561110757fe5b90602001906020020151888381518110151561111f57fe5b90602001906020020181815250508060200151878381518110151561114057fe5b90602001906020020181815250508060400151868381518110151561116157fe5b90602001906020020181815250508060a00151858381518110151561118257fe5b90602001906020020190600381111561119757fe5b908160038111156111a457fe5b81525050806060015184838151811015156111bb57fe5b9060200190602002018181525050806080015183838151811015156111dc57fe5b9060200190602002018181525050508080600101915050611006565b508585858585859d509d509d509d509d509d505050505050505050909192939495565b6000808390505b8281101561127b5760076000868152602001908152602001600020600301600082815260200190815260200160002060009054906101000a900460ff161561126e576000915050611281565b6201518081019050611222565b50600190505b9392505050565b6000806007600084815260200190815260200160002060010154600760008581526020019081526020016000206002015491509150915091565b606081831080156112d557508260005411155b80156112ef5750600062015180848115156112ec57fe5b06145b801561130957506000620151808381151561130657fe5b06145b151561137d576040517f08c379a00000000000000000000000000000000000000000000000000000000081526004018080602001828103825260128152602001807f496e76616c696420706172616d6574657273000000000000000000000000000081525060200191505060405180910390fd5b60606005546040519080825280602002602001820160405280156113b05781602001602082028038833980820191505090505b50905060008090505b600554811015611400576113d160018201868661121b565b82828151811015156113df57fe5b906020019060200201901515908115158152505080806001019150506113b9565b508091505092915050565b60008060055411801561141e5750600085115b801561142c57506005548511155b801561143757508284105b801561144557508360005411155b801561145f57506000620151808581151561145c57fe5b06145b801561147957506000620151808481151561147657fe5b06145b15156114ed576040517f08c379a00000000000000000000000000000000000000000000000000000000081526004018080602001828103825260128152602001807f496e76616c696420706172616d6574657273000000000000000000000000000081525060200191505060405180910390fd5b6000808315611518576007600088815260200190815260200160002060010154915060029050611536565b60076000888152602001908152602001600020600201549150600190505b816201518087870381151561154757fe5b0402341415156115bf576040517f08c379a000000000000000000000000000000000000000000000000000000000815260040180806020018281038252600b8152602001807f57726f6e6720707269636500000000000000000000000000000000000000000081525060200191505060405180910390fd5b6115ca878787611dbc565b60006115d533611e9c565b905060c0604051908101604052803373ffffffffffffffffffffffffffffffffffffffff16815260200189815260200134815260200188815260200187815260200183600381111561162357fe5b8152506008600083815260200190815260200160002060008201518160000160006101000a81548173ffffffffffffffffffffffffffffffffffffffff021916908373ffffffffffffffffffffffffffffffffffffffff1602179055506020820151816001015560408201518160020155606082015181600301556080820151816004015560a08201518160050160006101000a81548160ff021916908360038111156116cc57fe5b0217905550905050600960003373ffffffffffffffffffffffffffffffffffffffff1673ffffffffffffffffffffffffffffffffffffffff168152602001908152602001600020600101819080600181540180825580915050906001820390600052602060002001600090919290919091505550600960003373ffffffffffffffffffffffffffffffffffffffff1673ffffffffffffffffffffffffffffffffffffffff1681526020019081526020016000206000016000815480929190600101919050555084151561183e577fafb79fd5d2b9d7dc787267fc166aad92594a25b6a62b744a17bb022179e58aaa816040518082815260200191505060405180910390a1600160009054906101000a900473ffffffffffffffffffffffffffffffffffffffff1673ffffffffffffffffffffffffffffffffffffffff166108fc349081150290604051600060405180830381858888f19350505050158015611838573d6000803e3d6000fd5b506118b4565b600a819080600181540180825580915050906001820390600052602060002001600090919290919091505550600b600081548092919060010191905055507fa8fa168e209f8c22d0614c9f44f8f3ea557364f2759757af4be2cd0c0cd4f447816040518082815260200191505060405180910390a15b809350505050949350505050565b6000806060600254600360009054906101000a900460ff166004808054600181600116156101000203166002900480601f0160208091040260200160405190810160405280929190818152602001828054600181600116156101000203166002900480156119715780601f1061194657610100808354040283529160200191611971565b820191906000526020600020905b81548152906001019060200180831161195457829003601f168201915b50505050509050925092509250909192565b60076020528060005260406000206000915090508060000154908060010154908060020154905083565b600660009054906101000a90046bffffffffffffffffffffffff1681565b6119d3611fc0565b6008600083815260200190815260200160002060c060405190810160405290816000820160009054906101000a900473ffffffffffffffffffffffffffffffffffffffff1673ffffffffffffffffffffffffffffffffffffffff1673ffffffffffffffffffffffffffffffffffffffff168152602001600182015481526020016002820154815260200160038201548152602001600482015481526020016005820160009054906101000a900460ff166003811115611a8e57fe5b6003811115611a9957fe5b8152505090503373ffffffffffffffffffffffffffffffffffffffff16816000015173ffffffffffffffffffffffffffffffffffffffff16141515611b46576040517f08c379a000000000000000000000000000000000000000000000000000000000815260040180806020018281038252601c8152602001807f4e6f7420746865206f776e6572206f662074686520626f6f6b696e670000000081525060200191505060405180910390fd5b60026003811115611b5357fe5b8160a001516003811115611b6357fe5b141515611bd8576040517f08c379a00000000000000000000000000000000000000000000000000000000081526004018080602001828103825260188152602001807f426f6f6b696e6720616c72656164792063616e63656c6564000000000000000081525060200191505060405180910390fd5b4281606001511015611c78576040517f08c379a000000000000000000000000000000000000000000000000000000000815260040180806020018281038252602c8152602001807f426f6f6b696e6720616c726561647920737461727465642c2063616e6e6f742081526020017f62652063616e63656c6c6564000000000000000000000000000000000000000081525060400191505060405180910390fd5b611c8f816020015182606001518360800151611f3e565b60006008600084815260200190815260200160002060050160006101000a81548160ff02191690836003811115611cc257fe5b02179055507fbaa1eb22f2a492ba1a5fea61b8df4d27c6c8b5f3971e63bb58fa14ff72eedb70826040518082815260200191505060405180910390a13373ffffffffffffffffffffffffffffffffffffffff166108fc82604001519081150290604051600060405180830381858888f19350505050158015611d48573d6000803e3d6000fd5b505050565b60086020528060005260406000206000915090508060000160009054906101000a900473ffffffffffffffffffffffffffffffffffffffff16908060010154908060020154908060030154908060040154908060050160009054906101000a900460ff16905086565b60055481565b611dc783838361121b565b1515611e3b576040517f08c379a00000000000000000000000000000000000000000000000000000000081526004018080602001828103825260128152602001807f526f6f6d206e6f7420617661696c61626c65000000000000000000000000000081525060200191505060405180910390fd5b60008290505b81811015611e9657600160076000868152602001908152602001600020600301600083815260200190815260200160002060006101000a81548160ff0219169083151502179055506201518081019050611e41565b50505050565b60006001600660009054906101000a90046bffffffffffffffffffffffff1601600660006101000a8154816bffffffffffffffffffffffff02191690836bffffffffffffffffffffffff160217905550600660009054906101000a90046bffffffffffffffffffffffff166bffffffffffffffffffffffff1660608373ffffffffffffffffffffffffffffffffffffffff169060020a02016001029050919050565b60008290505b81811015611f9957600060076000868152602001908152602001600020600301600083815260200190815260200160002060006101000a81548160ff0219169083151502179055506201518081019050611f44565b50505050565b5080546000825590600052602060002090810190611fbd9190612018565b50565b60c060405190810160405280600073ffffffffffffffffffffffffffffffffffffffff168152602001600081526020016000815260200160008152602001600081526020016000600381111561201257fe5b81525090565b61203a91905b8082111561203657600081600090555060010161201e565b5090565b9056fea165627a7a72305820d41afa351e3b63a5b7437317cbd14c72a484fd952712a86c5eab459098a70f6d0029a165627a7a72305820f14a3094d11140654bf9bfcabd071dcc39d14cd397a86aba53537da3ebdf12380029",
  "source": "pragma solidity ^0.5.0;\n\n// The factory for the hotel contract\ncontract HotelFactory {\n\n    // All the hotel contracts\n    address[] hotelContracts;\n\n    // The map of owner => hotel contract\n    mapping(address => address[]) public hotelOwnerships;\n    event newHotelEvent(address contractAddress);\n\n    // Create an Hotel instance\n    function createContract (bytes32 name, uint8 stars, string memory description) public {\n        Hotel hotel = new Hotel(msg.sender, name, stars, description);\n        address hotelContractAddress = address(hotel);\n        hotelContracts.push(hotelContractAddress);\n        hotelOwnerships[msg.sender].push(hotelContractAddress);\n        emit newHotelEvent(hotelContractAddress);\n    } \n\n    //List my hotels\n    function listMyHotels() public view returns (address[] memory){\n        return hotelOwnerships[msg.sender];\n    }\n\n    // List all hotels\n    function listAllHotels() public view returns (address[] memory){\n        return hotelContracts;\n    }\n}\n\ncontract Hotel {\n\n    enum BookingStatus {\n        CANCELED,\n        CONFIRMED,\n        PENDING, \n        WITHDRAWN // When the hotel owner will withdraw the money of a free cancellation booking\n    }\n\n    struct BookingData {\n        address customer;\n        uint roomId;\n        uint amountPaid;\n        uint dateTimeStart;\n        uint dateTimeEnd;\n        BookingStatus status;     \n    }\n\n    struct Room {\n        uint roomId;\n        uint priceCancellable;\n        uint price;\n        mapping(uint => bool) booked;\n    }\n\n    struct UserBookings {\n        uint count;\n        bytes32[] bookingIds;\n    }\n\n    uint constant day = 60*60*24;\n    uint public creationDate; \n    address payable owner;\n    bytes32 name;\n    uint8 stars;\n    string description;\n    uint public currentRoomId = 0;\n    uint96 public numBooking = 0;\n    mapping(uint => Room) public roomList; // Id will start from 1\n    mapping(bytes32 => BookingData) public allBookings;\n    mapping(address => UserBookings) userBookingsMap; // Bookings Ids by user\n    bytes32[] public pendingFreeCancellation;\n    uint pendingFreeCancellationCount = 0;\n    \n    event FreeCancel(bytes32 bookingId);\n    event Cancelled(bytes32 bookingId);\n    event Booked(bytes32 bookingId);\n    event AddRoom(uint roomId);\n    event CreatedHotel(address payable owner, bytes32 name, uint8 stars, string description);\n    event Withdraw(uint, uint, bytes32[]);\n\n    // **************\n    // PUBLIC METHODS\n    // **************\n\n    // Constructor\n    constructor(address payable _owner, bytes32 _name, uint8 _stars, string memory _description) \n        public \n    {\n        name = _name;\n        stars = _stars;\n        description = _description;\n        owner = _owner;\n        creationDate = (now/day) * day; // floor to date, don't keep the time\n        emit CreatedHotel(owner, name, stars, description);\n    }\n\n    // Book a room\n    function book(uint roomId, uint start, uint end, bool isCancellable) \n        payable \n        public \n        returns (bytes32)\n    {\n        // Make sure the roomId exist and the date are usable\n        require(\n            currentRoomId > 0 && \n            roomId > 0 && \n            roomId <= currentRoomId && \n            start < end && \n            creationDate <= start &&\n            start % day == 0 && // time must be 00h00\n            end % day == 0,\n            \"Invalid parameters\"\n        );\n    \n        // Set variables depending on whether the booking is cancellable\n        uint price;\n        BookingStatus status;\n        if (isCancellable)\n        {\n            price = roomList[roomId].priceCancellable;\n            status = BookingStatus.PENDING;\n        }\n        else\n        {\n            price = roomList[roomId].price;\n            status = BookingStatus.CONFIRMED;\n        }          \n\n        // Do not proceed if the price of the booking is wrong\n        if (msg.value != ((end - start)/ day) * price)\n        {\n            revert(\"Wrong price\");\n        }\n        \n        // Mark the room as booked for the days of the booking\n        markAsBooked(roomId, start, end);\n        \n        // Save the booking data\n        bytes32 bookingId = generateBookingId(msg.sender);\n        allBookings[bookingId] = BookingData(msg.sender, roomId, msg.value, start, end, status);\n        \n        // Push the booking ID for the user\n        userBookingsMap[msg.sender].bookingIds.push(bookingId);\n        (userBookingsMap[msg.sender]).count++;\n\n        // Transfer the money to the hotel owner\n        if (!isCancellable)\n        {\n            emit Booked(bookingId);\n            owner.transfer(msg.value);\n        }\n\n        // Push the booking ID into the pending FreeCancellations \n        else\n        {           \n            pendingFreeCancellation.push(bookingId);\n            pendingFreeCancellationCount++;\n            emit FreeCancel(bookingId);\n        }\n        return bookingId;\n    }\n    \n    // Cancel a booking \n    function cancel(bytes32 bookingId) \n        public\n\t{\n\t    // Get the booking\n        BookingData memory bookingData = allBookings[bookingId];\n        if (bookingData.customer != msg.sender)\n            revert(\"Not the owner of the booking\");\n        else if (bookingData.status != BookingStatus.PENDING)\n            revert(\"Booking already canceled\");\n        else if (bookingData.dateTimeStart < now)\n            revert(\"Booking already started, cannot be cancelled\");\n            \n        // Mark the room as available\n        markAsAvailable(bookingData.roomId, bookingData.dateTimeStart, bookingData.dateTimeEnd);\n\t    \n        // Mark the booking as canceled\n        allBookings[bookingId].status = BookingStatus.CANCELED;\n        emit Cancelled(bookingId);\n\n        // Transfer the money back to the customer\n        msg.sender.transfer(bookingData.amountPaid);\n    }\n\t\n\t// Check if a room is available for the given dates\n    function isAvailableForDates(uint roomId, uint start, uint end) \n\t\tpublic \n        view\n\t\treturns (bool)\n\t{\n\t    for (uint i = start; i < end ; i+=day)\n            if (roomList[roomId].booked[i])\n                return false;\n        return true;\n    }\n\n    // Get an array corresponding to available rooms\n    function availableRoomsForDates(uint start, uint end)\n\t\tpublic\n        view\n\t\treturns (bool[] memory)\n\t{     \n        // Data validation  \n        require(\n            start < end && \n            creationDate <= start &&\n            start % day == 0 && // time must be 00h00\n            end % day == 0,\n            \"Invalid parameters\"\n        );\n\n        bool[] memory availableRooms = new bool[](currentRoomId);\n        for (uint i = 0; i < currentRoomId; i++)\n            availableRooms[i] = isAvailableForDates(i+1, start, end);\n        return availableRooms;\n    }\n\n    // List a user's bookings\n    function listUserBookings() \n        view \n        public\n        returns (bytes32[] memory id, uint[] memory roomId, uint[] memory amountPaid, BookingStatus[] memory status, uint[] memory startDate, uint[] memory endDate) \n    {\n        // Get the user's booking IDs\n        bytes32[] memory userBookingIds = userBookingsMap[msg.sender].bookingIds;\n        uint totalCount = userBookingsMap[msg.sender].count;\n\n        // Initialize the array to return\n        bytes32[] memory bookingIds = new bytes32[](totalCount);\n        uint[] memory roomIds = new uint[](totalCount);\n        uint[] memory amountsPaid = new uint[](totalCount);\n        BookingStatus[] memory statuses = new BookingStatus[](totalCount);\n        uint[] memory startDates = new uint[](totalCount);\n        uint[] memory endDates = new uint[](totalCount);\n\n        // Populate the array to return\n        for (uint i = 0; i < totalCount; i++)\n        {\n            BookingData memory bookingData = allBookings[userBookingIds[i]];\n            bookingIds[i] = userBookingIds[i];\n            roomIds[i] = bookingData.roomId;\n            amountsPaid[i] = bookingData.amountPaid;\n            statuses[i] = bookingData.status;\n            startDates[i] = bookingData.dateTimeStart;\n            endDates[i] = bookingData.dateTimeEnd;\n        }\n        return (bookingIds, roomIds, amountsPaid, statuses, startDates, endDates);\n    }   \n\n    // Withdraw the money from the cancellable bookings\n    function withdraw() \n        public \n        returns (uint) \n    {\n        // Data validation\n        require(msg.sender == owner, \"Only owner can withdraw money from his hotel.\");\n\n        // Initialize\n        uint amount = 0;\n        bytes32[] memory tempCopy = pendingFreeCancellation;\n        delete pendingFreeCancellation;\n        uint count = 0;\n        \n        // Loop through the pending free cancellations\n        for (uint i = 0; i < pendingFreeCancellationCount; i++)\n        {\n            bytes32 bookingId = tempCopy[i];\n            BookingData memory bookingData = allBookings[bookingId];\n\n            // Collect the money if the booking was for a past date and wasn't cancelled\n            if (bookingData.dateTimeStart < now && bookingData.status == BookingStatus.PENDING)\n            {\n                amount += bookingData.amountPaid;\n                allBookings[bookingId].status = BookingStatus.WITHDRAWN;\n            }               \n            \n            // Otherwise keep the booking for pending \n            else if (bookingData.dateTimeStart > now)\n            {\n                pendingFreeCancellation.push(bookingId); \n                count++;\n            }              \n        }\n\n        // Update class members\n        pendingFreeCancellationCount = count;\n        emit Withdraw(amount,pendingFreeCancellationCount, pendingFreeCancellation);\n\n        // Refund the money\n        msg.sender.transfer(amount);\n        return (amount);\n    }\n\n    // Add a room with the given prices\n    function addRoom(uint price, uint priceCancellable)  // the prices should be in wei\n\t\tpublic \n\t\treturns (uint) \n\t{\n        // Make sure the sender is the hotel owner and the price is well set\n        require(price > 0 && priceCancellable > 0, \"Prices must be > 0\");\n        require(msg.sender == owner, \"Only owner can update hotel.\");\n        \n        ++currentRoomId;\n        roomList[currentRoomId] = Room(currentRoomId, priceCancellable, price);\n        emit AddRoom(currentRoomId);\n        return currentRoomId;\n    }\n\n    // Get a room information\n    function getRoom(uint roomId) \n        view\n\t\tpublic \n\t\treturns (uint priceCancellable, uint price)\n    {\n        return (roomList[roomId].priceCancellable, roomList[roomId].price);\n    }\n\n    // Get the hotel information\n    function getHotel()\n        view\n        public \n\t\treturns (bytes32 hotelName, uint8 hotelStars, string memory hotelDescription)\n    {\n        return (name, stars, description);\n    }\n\t\n\t// **************\n    // PRIVATE METHODS\n    // **************\n    \n    // Generate unique booking ID \n    function generateBookingId(address senderAddress)\n        internal\n        returns (bytes32)\n    {\n        // Update numBooking\n        numBooking = numBooking + 1;\n\n        // Build the ID\n        return bytes32((uint256(senderAddress) << 96) + numBooking);\n    }\n\t\n\t// Marks the room as booked\n    function markAsBooked(uint roomId, uint start, uint end) \n\t\tinternal \n\t{\n        // Check if the room is available\n        if (!isAvailableForDates(roomId, start, end))\n            revert(\"Room not available\");\n            \n        // Mark as booked\n        for (uint i = start; i < end ; i+=day)\n            roomList[roomId].booked[i] = true;\n    }\n\t\n\t// Marks the room as available\n    function markAsAvailable(uint roomId, uint start, uint end) \n\t\tinternal\n\t{\n        // Mark as available\n        for (uint i = start; i < end ; i+=day)\n            roomList[roomId].booked[i] = false;\n    }\n}",
  "sourcePath": "/Users/Sonia/Projets/BlockChain/booking-blockchain/contracts/Hotel.sol",
  "compiler": {
    "name": "solc",
    "version": "0.5.0+commit.1d4f565a.Emscripten.clang"
  },
  "schemaVersion": "3.0.2",
  "updatedAt": "2019-03-01T04:09:37.456Z",
  "devdoc": {
    "methods": {}
  },
  "userdoc": {
    "methods": {}
  }
}