{
  "contractName": "HotelFactory",
  "abi": [
    {
      "constant": true,
      "inputs": [
        {
          "name": "",
          "type": "address"
        },
        {
          "name": "",
          "type": "uint256"
        }
      ],
      "name": "hotelOwnerships",
      "outputs": [
        {
          "name": "",
          "type": "address"
        }
      ],
      "payable": false,
      "stateMutability": "view",
      "type": "function",
      "signature": "0x0a392cb2"
    },
    {
      "anonymous": false,
      "inputs": [
        {
          "indexed": false,
          "name": "contractAddress",
          "type": "address"
        }
      ],
      "name": "newHotelEvent",
      "type": "event",
      "signature": "0xf683b4f502e3c13d91ca2e4d91e692e866ba50254669abd3fbf3a6c6ffc82595"
    },
    {
      "constant": false,
      "inputs": [
        {
          "name": "name",
          "type": "bytes32"
        }
      ],
      "name": "createContract",
      "outputs": [],
      "payable": false,
      "stateMutability": "nonpayable",
      "type": "function",
      "signature": "0x3f811b80"
    },
    {
      "constant": false,
      "inputs": [],
      "name": "listHotel",
      "outputs": [
        {
          "name": "",
          "type": "address[]"
        }
      ],
      "payable": false,
      "stateMutability": "nonpayable",
      "type": "function",
      "signature": "0x12619973"
    }
  ],
  "bytecode": "0x608060405234801561001057600080fd5b50611a50806100206000396000f3fe608060405260043610610057576000357c0100000000000000000000000000000000000000000000000000000000900463ffffffff1680630a392cb21461005c57806312619973146100f75780633f811b8014610163575b600080fd5b34801561006857600080fd5b506100b56004803603604081101561007f57600080fd5b81019080803573ffffffffffffffffffffffffffffffffffffffff1690602001909291908035906020019092919050505061019e565b604051808273ffffffffffffffffffffffffffffffffffffffff1673ffffffffffffffffffffffffffffffffffffffff16815260200191505060405180910390f35b34801561010357600080fd5b5061010c6101eb565b6040518080602001828103825283818151815260200191508051906020019060200280838360005b8381101561014f578082015181840152602081019050610134565b505050509050019250505060405180910390f35b34801561016f57600080fd5b5061019c6004803603602081101561018657600080fd5b81019080803590602001909291905050506102b6565b005b6001602052816000526040600020818154811015156101b957fe5b906000526020600020016000915091509054906101000a900473ffffffffffffffffffffffffffffffffffffffff1681565b6060600160003373ffffffffffffffffffffffffffffffffffffffff1673ffffffffffffffffffffffffffffffffffffffff1681526020019081526020016000208054806020026020016040519081016040528092919081815260200182805480156102ac57602002820191906000526020600020905b8160009054906101000a900473ffffffffffffffffffffffffffffffffffffffff1673ffffffffffffffffffffffffffffffffffffffff1681526020019060010190808311610262575b5050505050905090565b600033826102c2610494565b808373ffffffffffffffffffffffffffffffffffffffff1673ffffffffffffffffffffffffffffffffffffffff16815260200182815260200192505050604051809103906000f08015801561031b573d6000803e3d6000fd5b509050600081905060008190806001815401808255809150509060018203906000526020600020016000909192909190916101000a81548173ffffffffffffffffffffffffffffffffffffffff021916908373ffffffffffffffffffffffffffffffffffffffff16021790555050600160003373ffffffffffffffffffffffffffffffffffffffff1673ffffffffffffffffffffffffffffffffffffffff1681526020019081526020016000208190806001815401808255809150509060018203906000526020600020016000909192909190916101000a81548173ffffffffffffffffffffffffffffffffffffffff021916908373ffffffffffffffffffffffffffffffffffffffff160217905550507ff683b4f502e3c13d91ca2e4d91e692e866ba50254669abd3fbf3a6c6ffc8259581604051808273ffffffffffffffffffffffffffffffffffffffff1673ffffffffffffffffffffffffffffffffffffffff16815260200191505060405180910390a1505050565b604051611580806104a58339019056fe608060405260006002556000600360006101000a8154816bffffffffffffffffffffffff02191690836bffffffffffffffffffffffff1602179055506000602e5534801561004c57600080fd5b506040516040806115808339810180604052604081101561006c57600080fd5b81019080805190602001909291908051906020019092919050505080600181905550816000806101000a81548173ffffffffffffffffffffffffffffffffffffffff021916908373ffffffffffffffffffffffffffffffffffffffff16021790555050506114a1806100df6000396000f3fe6080604052600436106100ba576000357c0100000000000000000000000000000000000000000000000000000000900463ffffffff1680631ed2ab3d146100bf57806336e1d3a91461016b57806364c655ed146101c45780636d8a74cb1461022b57806381453a70146102c9578063a3b6120c1461031f578063a63a9aab1461034a578063a96372f5146103a7578063aa3cde48146103fd578063bbacc18714610444578063c4d252f5146104f0578063e45684631461052b575b600080fd5b3480156100cb57600080fd5b506100f8600480360360208110156100e257600080fd5b8101908080359060200190929190505050610556565b604051808773ffffffffffffffffffffffffffffffffffffffff1673ffffffffffffffffffffffffffffffffffffffff16815260200186815260200185815260200184815260200183815260200182600281111561015257fe5b60ff168152602001965050505050505060405180910390f35b34801561017757600080fd5b506101ae6004803603604081101561018e57600080fd5b8101908080359060200190929190803590602001909291905050506105bf565b6040518082815260200191505060405180910390f35b3480156101d057600080fd5b50610211600480360360608110156101e757600080fd5b8101908080359060200190929190803590602001909291908035906020019092919050505061069f565b604051808215151515815260200191505060405180910390f35b34801561023757600080fd5b506102646004803603602081101561024e57600080fd5b81019080803590602001909291905050506106d0565b6040518084815260200183815260200180602001828103825283818151815260200191508051906020019060200280838360005b838110156102b3578082015181840152602081019050610298565b5050505090500194505050505060405180910390f35b610309600480360360608110156102df57600080fd5b8101908080359060200190929190803590602001909291908035906020019092919050505061079d565b6040518082815260200191505060405180910390f35b34801561032b57600080fd5b50610334610a2f565b6040518082815260200191505060405180910390f35b34801561035657600080fd5b506103836004803603602081101561036d57600080fd5b8101908080359060200190929190505050610a35565b60405180848152602001838152602001828152602001935050505060405180910390f35b6103e7600480360360608110156103bd57600080fd5b81019080803590602001909291908035906020019092919080359060200190929190505050610a64565b6040518082815260200191505060405180910390f35b34801561040957600080fd5b50610412610d03565b60405180826bffffffffffffffffffffffff166bffffffffffffffffffffffff16815260200191505060405180910390f35b34801561045057600080fd5b5061047d6004803603602081101561046757600080fd5b8101908080359060200190929190505050610d21565b604051808773ffffffffffffffffffffffffffffffffffffffff1673ffffffffffffffffffffffffffffffffffffffff1681526020018681526020018581526020018481526020018381526020018260028111156104d757fe5b60ff168152602001965050505050505060405180910390f35b3480156104fc57600080fd5b506105296004803603602081101561051357600080fd5b8101908080359060200190929190505050610d8a565b005b34801561053757600080fd5b5061054061106b565b6040518082815260200191505060405180910390f35b602c6020528060005260406000206000915090508060000160009054906101000a900473ffffffffffffffffffffffffffffffffffffffff16908060010154908060020154908060030154908060040154908060050160009054906101000a900460ff16905086565b600080670de0b6b3a7640000830290506000670de0b6b3a764000085029050608060405190810160405280600254815260200183815260200182815260200161016d60405190808252806020026020018201604052801561062f5781602001602082028038833980820191505090505b508152506004600254600a8110151561064457fe5b600402016000820151816000015560208201518160010155604082015181600201556060820151816003019080519060200190610682929190611347565b509050506001600254016002819055506002549250505092915050565b6000806106ab84611071565b905060006106b884611071565b90506106c58683836110a2565b925050509392505050565b6000806060600484600a811015156106e457fe5b6004020160010154600485600a811015156106fb57fe5b6004020160020154600486600a8110151561071257fe5b600402016003018080548060200260200160405190810160405280929190818152602001828054801561078957602002820191906000526020600020906000905b82829054906101000a900460ff161515815260200190600101906020826000010492830192600103820291508084116107535790505b505050505090509250925092509193909250565b60008084101580156107b157506002548411155b80156107bc57508183105b80156107ca575082602e5411155b15156107d557600080fd5b600484600a811015156107e457fe5b600402016001015434141515610862576040517f08c379a00000000000000000000000000000000000000000000000000000000081526004018080602001828103825260138152602001807f57726f6e6720626f6f6b696e672070726963650000000000000000000000000081525060200191505060405180910390fd5b60008061087086868661111e565b8092508193505050600061088333611235565b905060c0604051908101604052803373ffffffffffffffffffffffffffffffffffffffff1681526020018881526020018481526020018381526020013481526020016002808111156108d157fe5b815250602c600083815260200190815260200160002060008201518160000160006101000a81548173ffffffffffffffffffffffffffffffffffffffff021916908373ffffffffffffffffffffffffffffffffffffffff1602179055506020820151816001015560408201518160020155606082015181600301556080820151816004015560a08201518160050160006101000a81548160ff0219169083600281111561097a57fe5b0217905550905050602f60003373ffffffffffffffffffffffffffffffffffffffff1673ffffffffffffffffffffffffffffffffffffffff1681526020019081526020016000208190806001815401808255809150509060018203906000526020600020016000909192909190915055507fa8fa168e209f8c22d0614c9f44f8f3ea557364f2759757af4be2cd0c0cd4f447816040518082815260200191505060405180910390a18093505050509392505050565b602e5481565b600481600a81101515610a4457fe5b600402016000915090508060000154908060010154908060020154905083565b600080600254118015610a78575060008410155b8015610a85575060025484105b8015610a9057508183105b8015610a9e575082602e5411155b1515610aa957600080fd5b600484600a81101515610ab857fe5b600402016002015434141515610acd57600080fd5b600080610adb86868661111e565b80925081935050506000610aee33611235565b905060c0604051908101604052803373ffffffffffffffffffffffffffffffffffffffff16815260200188815260200184815260200183815260200134815260200160016002811115610b3d57fe5b815250602d600083815260200190815260200160002060008201518160000160006101000a81548173ffffffffffffffffffffffffffffffffffffffff021916908373ffffffffffffffffffffffffffffffffffffffff1602179055506020820151816001015560408201518160020155606082015181600301556080820151816004015560a08201518160050160006101000a81548160ff02191690836002811115610be657fe5b02179055509050506000809054906101000a900473ffffffffffffffffffffffffffffffffffffffff1673ffffffffffffffffffffffffffffffffffffffff166108fc349081150290604051600060405180830381858888f19350505050158015610c55573d6000803e3d6000fd5b50602f60003373ffffffffffffffffffffffffffffffffffffffff1673ffffffffffffffffffffffffffffffffffffffff1681526020019081526020016000208190806001815401808255809150509060018203906000526020600020016000909192909190915055507fafb79fd5d2b9d7dc787267fc166aad92594a25b6a62b744a17bb022179e58aaa816040518082815260200191505060405180910390a18093505050509392505050565b600360009054906101000a90046bffffffffffffffffffffffff1681565b602d6020528060005260406000206000915090508060000160009054906101000a900473ffffffffffffffffffffffffffffffffffffffff16908060010154908060020154908060030154908060040154908060050160009054906101000a900460ff16905086565b610d926113ed565b602c600083815260200190815260200160002060c060405190810160405290816000820160009054906101000a900473ffffffffffffffffffffffffffffffffffffffff1673ffffffffffffffffffffffffffffffffffffffff1673ffffffffffffffffffffffffffffffffffffffff168152602001600182015481526020016002820154815260200160038201548152602001600482015481526020016005820160009054906101000a900460ff166002811115610e4d57fe5b6002811115610e5857fe5b8152505090503373ffffffffffffffffffffffffffffffffffffffff16816000015173ffffffffffffffffffffffffffffffffffffffff16141515610f05576040517f08c379a000000000000000000000000000000000000000000000000000000000815260040180806020018281038252601c8152602001807f4e6f7420746865206f776e6572206f662074686520626f6f6b696e670000000081525060200191505060405180910390fd5b600280811115610f1157fe5b8160a001516002811115610f2157fe5b141515610f96576040517f08c379a00000000000000000000000000000000000000000000000000000000081526004018080602001828103825260188152602001807f426f6f6b696e6720616c72656164792063616e63656c6564000000000000000081525060200191505060405180910390fd5b610fad8160200151826040015183606001516112d7565b3373ffffffffffffffffffffffffffffffffffffffff166108fc82608001519081150290604051600060405180830381858888f19350505050158015610ff7573d6000803e3d6000fd5b507fbaa1eb22f2a492ba1a5fea61b8df4d27c6c8b5f3971e63bb58fa14ff72eedb70826040518082815260200191505060405180910390a16000602c600084815260200190815260200160002060050160006101000a81548160ff0219169083600281111561106257fe5b02179055505050565b60025481565b60006018603c80602e54850381151561108657fe5b0481151561109057fe5b0481151561109a57fe5b049050919050565b6000808390505b828111151561111157600485600a811015156110c157fe5b60040201600301818154811015156110d557fe5b90600052602060002090602091828204019190069054906101000a900460ff1615611104576000915050611117565b80806001019150506110a9565b50600190505b9392505050565b600080600061112c85611071565b9050600061113985611071565b90506111468783836110a2565b15156111ba576040517f08c379a00000000000000000000000000000000000000000000000000000000081526004018080602001828103825260128152602001807f526f6f6d206e6f7420617661696c61626c65000000000000000000000000000081525060200191505060405180910390fd5b60008290505b8181111515611224576001600489600a811015156111da57fe5b60040201600301828154811015156111ee57fe5b90600052602060002090602091828204019190066101000a81548160ff02191690831515021790555080806001019150506111c0565b508181935093505050935093915050565b60006001600360009054906101000a90046bffffffffffffffffffffffff1601600360006101000a8154816bffffffffffffffffffffffff02191690836bffffffffffffffffffffffff160217905550600360009054906101000a90046bffffffffffffffffffffffff166bffffffffffffffffffffffff1660608373ffffffffffffffffffffffffffffffffffffffff169060020a02016001029050919050565b60008290505b8181111515611341576000600485600a811015156112f757fe5b600402016003018281548110151561130b57fe5b90600052602060002090602091828204019190066101000a81548160ff02191690831515021790555080806001019150506112dd565b50505050565b82805482825590600052602060002090601f016020900481019282156113dc5791602002820160005b838211156113ad57835183826101000a81548160ff0219169083151502179055509260200192600101602081600001049283019260010302611370565b80156113da5782816101000a81549060ff02191690556001016020816000010492830192600103026113ad565b505b5090506113e99190611445565b5090565b60c060405190810160405280600073ffffffffffffffffffffffffffffffffffffffff168152602001600081526020016000815260200160008152602001600081526020016000600281111561143f57fe5b81525090565b61147291905b8082111561146e57600081816101000a81549060ff02191690555060010161144b565b5090565b9056fea165627a7a72305820baf326d4ea80fd0faac74a050646733a3d59f43cfb1e3574a2b8f92bcd065b140029a165627a7a72305820040eb62d53373dd8395e53f4314b438aac699608d0fa34b9f94992ec68ffea550029",
  "source": "pragma solidity ^0.5.0;\n\ncontract HotelFactory {\n    address[] hotelContracts;\n    mapping(address => address[]) public hotelOwnerships;\n\n    event newHotelEvent(address contractAddress);\n\n    function createContract (bytes32 name) public {\n        Hotel hotel = new Hotel(msg.sender, name);\n        address hotelContractAddress = address(hotel);\n        hotelContracts.push(hotelContractAddress);\n        hotelOwnerships[msg.sender].push(hotelContractAddress);\n        emit newHotelEvent(hotelContractAddress);\n    } \n\n    function listHotel() public returns (address[] memory){\n        return hotelOwnerships[msg.sender];\n    }\n}\n\ncontract Hotel {\n\n    enum BookingStatus {\n        CANCELED,\n        CONFIRMED,    \n        PENDING\n    }\n\n    struct BookingData {\n        address customer;\n        uint roomId;\n        uint startDate;\n        uint endDate;\n        uint amountPaid;\n        BookingStatus status;\n    }\n\n    struct Room {       \n        uint roomId;\n        uint priceCancellable;\n        uint price;\n        bool[] booked;\n    }\n\n    address payable owner;\n    bytes32 name;\n    uint public currentRoomId = 0;\n    uint96 public numBooking = 0;\n    Room[10] public roomList;\n    mapping(bytes32 => BookingData) public freeCancellations;\n    mapping(bytes32 => BookingData) public bookings;\n\n    uint public dateStart = 0;\n    mapping(address => bytes32[]) userBookings;\n\n    event FreeCancel(bytes32 bookingId);\n    event Cancelled(bytes32 bookingId);\n    event Booked(bytes32 bookingId);\n\n    // **************\n    // PUBLIC METHODS\n    // **************\n\n    constructor(address payable _owner, bytes32 _name) public {\n        name = _name;\n        owner = _owner;\n    }\n    \n    // No cancellation\n    function booking(uint roomId, uint start, uint end) payable public returns (bytes32)\n    {\n        // Make sure the roomId exist and the date are usable\n        require(currentRoomId > 0 && roomId >= 0 && roomId < currentRoomId && start < end && dateStart <= start);\n        \n        // Do not proceed if the price of the booking is wrong\n        if (msg.value != roomList[roomId].price)\n        {\n            revert();\n        }\n        \n        // Mark the room as booked for the days of the booking\n        uint dayStart;\n        uint dayEnd;\n        (dayStart, dayEnd) = markAsBooked(roomId, start, end);\n        \n        // Save the booking data\n        bytes32 bookingId = generateBookingId(msg.sender);\n        bookings[bookingId] = BookingData(msg.sender, roomId, dayStart, dayEnd, msg.value, BookingStatus.CONFIRMED);\n        \n        // Transfer the money to the hotel owner\n        owner.transfer(msg.value);\n        \n        // Push the booking ID for the user\n        userBookings[msg.sender].push(bookingId);\n\n        emit Booked(bookingId);\n\n        return bookingId;\n    }\n\t\n\t// Free cancellation\n    function freeCancellation(uint roomId, uint start, uint end) payable public returns (bytes32)\n\t{\n\t    // Make sure the roomId exist and the date are usable\n        require(roomId >= 0 && roomId <= currentRoomId && start < end && dateStart <= start);\n        \n        // Do not proceed if the price of the booking is wrong\n        if (msg.value != roomList[roomId].priceCancellable)\n        {\n            revert(\"Wrong booking price\");\n        }\n        \n        // Mark the room as booked for the days of the booking\n        uint dayStart;\n        uint dayEnd;\n        (dayStart, dayEnd) = markAsBooked(roomId, start, end);\n        \n        // Save the booking data\n        bytes32 bookingId = generateBookingId(msg.sender);\n        freeCancellations[bookingId] = BookingData(msg.sender, roomId, dayStart, dayEnd, msg.value, BookingStatus.PENDING);\n\t\n\t    // Push the booking ID for the user\n        userBookings[msg.sender].push(bookingId);\n        \n        emit FreeCancel(bookingId);\n\n        return bookingId;\n    }\n\t\n    function cancel(bytes32 bookingId) public\n\t{\n\t    // Get the booking\n        BookingData memory bookingData = freeCancellations[bookingId];\n        if (bookingData.customer != msg.sender)\n            revert(\"Not the owner of the booking\");\n        else if (bookingData.status != BookingStatus.PENDING)\n            revert(\"Booking already canceled\");\n            \n        // Mark the room as available\n        markAsAvailable(bookingData.roomId, bookingData.startDate, bookingData.endDate);\n\t    \n\t    // Transfer the money back to the customer\n        msg.sender.transfer(bookingData.amountPaid);\n        \n        emit Cancelled(bookingId);\n\n        // Mark the booking as canceled\n        freeCancellations[bookingId].status = BookingStatus.CANCELED;\n    }\n\t\n\t// Check if a room is available for the given dates\n    function isAvailableForDates(uint roomId, uint start, uint end) \n\t\tpublic \n\t\treturns (bool)\n\t{\n\t    // Convert the date to day number (0 being the date the contract was deployed)\n        uint dayStart = convertToDayNumber(start);\t\n        uint dayEnd = convertToDayNumber(end);\n        \n        // Delegate the call \n        return isAvailableForDayNumbers(roomId, dayStart, dayEnd);\n    }\n\t\n    function addRoom(uint price, uint priceCancellable) \n\t\tpublic \n\t\treturns (uint) \n\t{\n        uint weiPriceCancellable = priceCancellable * 1000000000000000000;\n        uint weiPrice = price * 1000000000000000000;\n        roomList[currentRoomId] = Room(currentRoomId, weiPriceCancellable, weiPrice, new bool[](365));\n        currentRoomId = currentRoomId + 1;\n        return currentRoomId;\n    }\n\n    function getRoom(uint roomId) \n\t\tpublic \n\t\treturns (uint priceCancellable, uint price, bool[] memory booked) \n    {\n        return (roomList[roomId].priceCancellable, roomList[roomId].price, roomList[roomId].booked);\n    }\n\t\n\t// **************\n    // PRIVATE METHODS\n    // **************\n    \n    // Generate unique booking ID \n    function generateBookingId(address senderAddress)\n        internal\n        returns (bytes32)\n    {\n        // Update numBooking\n        numBooking = numBooking + 1;\n        // requestId = ADDRESS_SENDER+ numRequests (0xADRRESSSENDER00000NUMREQUEST)\n        return bytes32((uint256(senderAddress) << 96) + numBooking);\n    }\n    \n    // Convert dae to day number (0 being the contract creation day)\n    function convertToDayNumber(uint date) \n    \tinternal \n    \treturns (uint)\n\t{\n        return (date - dateStart) / 60 / 60 / 24;\n    }\n    \n    // Check whether the room is available for the given day numbers\n    function isAvailableForDayNumbers(uint roomId, uint dayStart, uint dayEnd) \n    \tinternal \n    \treturns (bool)\n\t{\n        for (uint i = dayStart; i <= dayEnd ; i++)\n        {\n            if (roomList[roomId].booked[i])\n                return false;\n        }\n        return true;\n    }\n\t\n\t// Marks the room as booked\n    function markAsBooked(uint roomId, uint start, uint end) \n\t\tinternal \n\t\treturns (uint, uint) \n\t{\n\t    // Convert the date to day number (0 being the date the contract was deployed)\n        uint dayStart = convertToDayNumber(start);\t\n        uint dayEnd = convertToDayNumber(end);\n        \n        // Check if the room is available\n        if (!isAvailableForDayNumbers(roomId, dayStart, dayEnd))\n            revert(\"Room not available\");\n            \n        // Mark as booked\n        for (uint i = dayStart; i <= dayEnd ; i++)\n        {\n            roomList[roomId].booked[i] = true;\n        }\n        \n        // Return the day numbers\n        return (dayStart, dayEnd);\n    }\n\t\n\t// Marks the room as available\n    function markAsAvailable(uint roomId, uint dayStart, uint dayEnd) \n\t\tinternal\n\t{\n        // Mark as available\n        for (uint i = dayStart; i <= dayEnd ; i++)\n        {\n            roomList[roomId].booked[i] = false;\n        }\n    }\n}",
  "sourcePath": "/Users/Sonia/Projets/BlockChain/Wes'hotel/contracts/Hotel.sol",
  "compiler": {
    "name": "solc",
    "version": "0.5.0+commit.1d4f565a.Emscripten.clang"
  },
  "schemaVersion": "3.0.1",
  "updatedAt": "2019-02-07T13:15:05.235Z",
  "devdoc": {
    "methods": {}
  },
  "userdoc": {
    "methods": {}
  }
}